:030000000206E411
:0100030032CA
:03000B0002069555
:0100130032BA
:01001B0032B2
:0100230032AA
:03002B000206B119
:10002E0048656C6C6F20576F726C64210D0A000D61
:10003E000A00536F616B3A005265666C3A00546564
:10004E006D703A003030304300200030303A30309E
:10005E0000202020202020202020202020202020B2
:01006E002071
:10006F00C0E0C0D0C000C001C002E4F538F539F5DA
:10007F003AF53BF53C7A20E533A2E779047830E690
:10008F0033F608D9FA79057838E636D4F608D9F96F
:10009F00DAE5D002D001D000D0D0D0E022C0E0C04D
:1000AF00D0C000C001C002E4F538F539F53AF53B90
:1000BF00F53C7A20E533A2E779047830E633F60889
:1000CF00D9FA79057838C0D0E6243320E70224D056
:1000DF0020E30224FDD0D033F608D9EADAD6D002D5
:1000EF00D001D000D0D0D0E022C0E0C0D0C000C03E
:1000FF0001C0027A207905C3783CE613C0D030E7FF
:10010F000224D030E30224FDF618D0D0D9EC7904C4
:10011F007833E613F618D9FADADBD002D001D00023
:10012F00D0D0D0E022C0E0C0D0E5302534F530E5A6
:10013F00313535F531E5323536F532E5333537F5CD
:10014F0033D0D0D0E022C0E0C0D0C3E5309534F535
:10015F0030E5319535F531E5329536F532E53395A4
:10016F0037F533D0D0D0E022C0E0C0D0C3E5309512
:10017F0034E5319535E5329536E53395379200D034
:10018F00D0D0E022C0E0C0D0C3E5349530E535953E
:10019F0031E5369532E53795339200D0D0D0E02255
:1001AF00C0E0C0D0C200C3E53495307014E535957A
:1001BF0031700EE53695327008E53795337002D2FF
:1001CF0000D0D0D0E0221201AF2000030201932211
:1001DF001201AF20000302017722C0E0C0F0C0D0AF
:1001EF00C000C001C002C003E5308534F0A4F8A9F7
:1001FF00F0E5318534F0A429F9E435F0FAE53085DE
:10020F0035F0A429F9E5F03AFAE433FBE532853409
:10021F00F0A42AFAE5F03BFBE5318535F0A42AFA84
:10022F00E5F03BFBE5308536F0A42AFAE5F03BFB21
:10023F00E5338534F0A42BFBE5328535F0A42BFB99
:10024F00E5318536F0A42BFBE5308537F0A42BFB89
:10025F008B338A3289318830D003D002D001D0005D
:10026F00D0D0D0F0D0E022C0E0C0D0C000C001C0DC
:10027F0002C003C0047C20E4F8F9FAFBC3E5303375
:10028F00F530E53133F531E53233F532E53333F51A
:10029F0033E833F8E933F9EA33FAEB33FBC3E89584
:1002AF0034E99535EA9536EB95374013E89534F8F0
:1002BF00E99535F9EA9536FAEB9537FB433001DCD2
:1002CF00BBD004D003D002D001D000D0D0D0E022D8
:1002DF00C00078B10000D8FCD00022C000C0017966
:1002EF002D78A6D8FED9FADAF6D001D000227A59A5
:1002FF0079FA78A6D8FAD9FADAFA22D2931202DF6B
:10030F00C29322A2E792B5A2E692B4A2E592B3A25B
:10031F00E492B212030A1202DFA2E392B5A2E292B2
:10032F00B4A2E192B3A2E092B212030A22D29102D6
:10033F000312C291020312C293C292743312034189
:10034F00743312034174321203417428120341743F
:10035F000C1203417401120341C0027A021202EA25
:10036F00D00222E493600612033CA380F62244409D
:10037F004480020341C0E0E8C4540F443012033CF0
:10038F00E8540F443012033CD0E022C0E07407144D
:10039F0012037FD0E0C000A843120384D000C0E056
:1003AF00740B1412037FD0E0C000A84D120384D049
:1003BF0000C0E0740E1412037FD0E0C000A84E12EC
:1003CF000384D00022C0E074071412037DD0E0C074
:1003DF0000A845120384D000C0E0740B1412037DF3
:1003EF00D0E0C000A84F120384D000C0E0740E14F8
:1003FF0012037DD0E0C000A850120384D00022D297
:10040F0005C0E074011412037FD0E0C083C082C026
:10041F00E090005F120372D0E0D082D083C0E0740E
:10042F00021412037FD0E0C083C082C0E090005F4F
:10043F00120372D0E0D082D083C0E0740114120393
:10044F007FD0E0C083C082C0E090004C120372D016
:10045F00E0D082D083C0E074061412037FD0E0C0D6
:10046F0000A841120384D000020A3CC205C0E07408
:10047F00011412037FD0E0C083C082C0E090005F00
:10048F00120372D0E0D082D083C0E0740214120342
:10049F007FD0E0C083C082C0E090005F120372D0B3
:1004AF00E0D082D083C0E074011412037FD0E0C08B
:1004BF0083C082C0E0900040120372D0E0D082D09F
:1004CF0083C0E074061412037FD0E0C083C082C0E3
:1004DF00E0900052120372D0E0D082D083C0E0745B
:1004EF000A1412037FD0E0C083C082C0E09000578F
:1004FF00120372D0E0D082D083C0E0740B141203C9
:10050F007FD0E0C083C082C0E0900059120372D048
:10051F00E0D082D083C0E074011412037DD0E0C01C
:10052F0083C082C0E0900046120372D0E0D082D028
:10053F0083C0E074061412037DD0E0C083C082C074
:10054F00E0900052120372D0E0D082D083C0E074EA
:10055F000A1412037DD0E0C083C082C0E090005720
:10056F00120372D0E0D082D083C0E0740B14120358
:10057F007DD0E0C083C082C0E0900059120372D0DA
:10058F00E0D082D08312039A1203D4020A3CC0E057
:10059F0074061412037DD0E0C000A838120384D073
:1005AF000022C2A0780112064AE5F0C454F0D2E747
:1005BF00F812064AE95403FF785512064AE9FED2AB
:1005CF00A022853D30853E3175320075330075347C
:1005DF009A7535017536007537001201E97534FFCC
:1005EF00753503753600753700120276753411753F
:1005FF00350175360075370012015512006F12055F
:10060F009D8538411200F875341175350175360026
:10061F0075370012015512006FC000A838120384FD
:03062F00D00022D6
:10063200C000C00179017802D8FED9FADAF6D001F9
:10064200D00022D2A2C2A322C0E079007A08E83305
:10065200F892A1D2A3A2A2E933F9C2A3DAF0D0E0C0
:100662002279DE78A6D8FED9FA438780759852752A
:100672009B00759AF4759B1E22C2CA32E58954F01A
:100682004401F589758CEA758AE875F4EA75F2E831
:10069200D2A922B2B73275C80075CDA975CC9A75A8
:1006A200CBA975CA9AE4F547F548D2ADD2CA22C29F
:1006B200CFB2B6C0E0C0D00547E54770020548E5B5
:1006C20047B4E819E548B40314D202B28CE4F54702
:1006D200F548E549800280022499D4F549D0D0D06A
:1006E200E03275817F12034612067E12069875E685
:1006F2000075E700C2B7754300754500754900757E
:100702004A00754D00754E00754F00755000C0E0EF
:1007120074011412037FD0E0C083C082C0E0900055
:1007220040120372D0E0D082D083C0E0740614126B
:10073200037FD0E0C083C082C0E0900052120372F7
:10074200D0E0D082D083C0E0740A1412037FD0E0DC
:10075200C083C082C0E0900057120372D0E0D08202
:10076200D083C0E0740B1412037FD0E0C083C08238
:10077200C0E0900059120372D0E0D082D083C0E072
:1007820074011412037DD0E0C083C082C0E09000E7
:1007920046120372D0E0D082D083C0E074061412F5
:1007A200037DD0E0C083C082C0E090005212037289
:1007B200D0E0D082D083C0E0740A1412037DD0E06E
:1007C200C083C082C0E0900057120372D0E0D08292
:1007D200D083C0E0740B1412037DD0E0C083C082CA
:1007E200C0E0900059120372D0E0D082D08312068A
:1007F20045120663D2AFC205754900754A00E54944
:10080200C0E0740B1412037FD0E0C000A84A1203A8
:1008120084D000C0E0740B1412037DD0E0C000A8A5
:1008220049120384D00002082B20C531C0027A325B
:100832001202EAD00220C52530C5FDE4F543F54D8C
:10084200F54E12039A02082B20A7DEC0027A32125A
:1008520002EAD00220A7D230A7FD0208DD20801DC7
:10086200C0027A321202EAD0022080113080FDE505
:10087200432401D4F543E412039A02082B20832C6B
:10088200C0027A321202EAD0022083203083FDE5D0
:100892004DB4590C7400D4F54DE412039A02082B9E
:1008A2002401D4F54DE412039A02082B208699C044
:1008B200027A321202EAD00220868D3086FDE54E9F
:1008C200B4590C7400D4F54EE412039A02082B2496
:1008D20001D4F54EE412039A02082B20C53DC00252
:1008E2007A321202EAD00220C53130C5FDE4F54564
:1008F200F54FF5501203D40208DD20A7DEC0027ABC
:10090200321202EAD00220A7D230A7FDD202D2CA06
:10091200854D4A854E49C2040209DF20801DC0026E
:100922007A321202EAD0022080113080FDE545249D
:1009320001D4F545E41203D40208DD20832CC00261
:100942007A321202EAD0022083203083FDE54FB4CE
:10095200590C7400D4F54FE41203D40208DD2401CB
:10096200D4F54FE41203D40208DD20868DC0027A4A
:10097200321202EAD0022086813086FDE550B45957
:100982000C7400D4F550E41203D40208DD2401D41F
:10099200F550E41203D40208DDC2B7C0027A631232
:1009A2000632D002D2B7C0027A01120632D0021247
:1009B20005B11205D1C3E541B543050209DF9541F1
:1009C20040030209DFC3E54194329201300107E599
:1009D20049B43C02800302099BD2B780FCC2B7C073
:1009E200027A14120632D002D2B7C0027A5012062C
:1009F20032D00220C521C0027A321202EAD002208D
:100A0200C51530C5FDC2CAE4F547F548F549F54AB2
:100A1200D2CA020AD080C620A720C0027A321202AD
:100A2200EAD00220A71430A7FDC2CAE4F547F54870
:100A3200F549D2B702082B020A3C3002A0C202E5F5
:100A420049B499028003020AD07459F549E4E54A8F
:100A5200B4006F30044BC2CAE4754300754500759B
:100A62004900754A00754D00754E00754F0075506E
:100A72000012039A1203D402082BC2B7C0027A638F
:100A8200120632D002D2B7C0027A01120632D00266
:100A9200C3E541B54503020AA34003020AA3020AC1
:100AA2007CD204854F4A855049C2B7C0027A1412DB
:100AB2000632D002D2B7C0027A50120632D00202F7
:100AC20009DF2499D4F54AE4B40003E4F54A30047A
:100AD20003200429C0E0740B1412037FD0E0C0008D
:100AE200A84A120384D000C0E0740E1412037FD00F
:100AF200E0C000A849120384D0000209DFC0E074FC
:100B02000B1412037DD0E0C000A84A120384D00067
:100B1200C0E0740E1412037DD0E0C000A849120395
:100B220084D0000209DFD2B7C3E541B43C03020B13
:100B3200284003020B28754300754500754900756E
:100B42004A00754D00754E00754F00755000120336
:070B52009A1203D402082BE4
:00000001FF
