:030000000210905B
:0100030032CA
:01000B0032C2
:0100130032BA
:03001B0002105977
:0100230032AA
:03005B0002092770
:10005E0048656C6C6F20576F726C64210D0A000D31
:10006E000A00536F616B3A005265666C3A00546534
:10007E006D703A00506F7765723A2500303030431C
:10008E0000200030303A3030002020202020202068
:0A009E002020202020202020200038
:1000A800C000784AD8FED00022C000C001790A7882
:1000B800B8D8FED9FADAF6D001D000227A1479FA43
:1000C80078B8D8FED9FADAF622D2871200A8C28701
:1000D8001200A822A2E79296A2E69294A2E5929331
:1000E800A2E492921200D1A2E39296A2E29294A282
:1000F800E19293A2E092921200D122D2850200DC12
:10010800C2850200DCC287C286C0027A281200B10A
:10011800D0027433120108743312010874321201C8
:10012800087428120108740C1201087401120108DD
:10013800C0027A021200B1D00222E49360061201D2
:1001480003A380F62244404480020108C0E0E8C4CA
:10015800540F4430120103E8540F4430120103D005
:10016800E022C0E074071412014FD0E0C000A86C70
:10017800120154D000C0E074051412014FD0E0C041
:1001880000A86D120154D000C0E074011412014F90
:10019800D0E0C083C082C0E0900070120142D0E07D
:1001A800D082D083C0E0740B1412014FD0E0C0009D
:1001B800A87B120154D000C0E0740E1412014FD075
:1001C800E0C000A87C120154D00022C0E0740714DB
:1001D80012014DD0E0C000A86F120154D000C0E059
:1001E80074051412014DD0E0C000A870120154D05B
:1001F80000C0E074011412014DD0E0C083C082C079
:10020800E0900076120142D0E0D082D083C0E07442
:100218000B1412014DD0E0C000A87D120154D0008B
:10022800C0E0740E1412014DD0E0C000A87E120187
:1002380054D00022C0E0740B1412014FD0E0C0006B
:10024800A878120154D000C0E0740E1412014FD0E7
:10025800E0C000A877120154D0000213F4C0E07483
:100268000B1412014DD0E0C000A878120154D00040
:10027800C0E0740E1412014DD0E0C000A87712013E
:1002880054D0000213F43004AB2004D1D205C0E0EE
:1002980074011412014FD0E0C083C082C0E0900006
:1002A80097120142D0E0D082D083C0E074011412CA
:1002B800014DD0E0C083C082C0E090009712014297
:1002C800D0E0D082D083C0E074011412014FD0E096
:1002D800C083C082C0E090007C120142D0E0D0828E
:1002E800D083C0E074011412014DD0E0C083C082F5
:1002F800C0E0900082120142D0E0D082D083C0E0FA
:1003080074081412014DD0E0C000A872120154D034
:1003180000E4856233856334F535F5361206A0C0EE
:10032800E0C0E074061412014FD0E0D0E0120F8C48
:10033800C0E07443120103D0E0E48564338565347A
:10034800F535F5361206A0C0E0C0E0740C141201B1
:100358004FD0E0D0E0120F8CC0E07443120103D0FC
:10036800E0E4856033856134F535F5360213F4C26F
:1003780005C0E074011412014FD0E0C083C082C0F0
:10038800E0900097120142D0E0D082D083C0E074A0
:10039800021412014FD0E0C083C082C0E0900097E1
:1003A800120142D0E0D082D083C0E074011412015F
:1003B8004FD0E0C083C082C0E0900070120142D0EC
:1003C800E0D082D083C0E074061412014FD0E0C0A0
:1003D80083C082C0E090008A120142D0E0D082D06F
:1003E80083C0E0740A1412014FD0E0C083C082C0F9
:1003F800E090008F120142D0E0D082D083C0E07438
:100408000B1412014FD0E0C083C082C0E09000916D
:10041800120142D0E0D082D083C0E07401141201EE
:100428004DD0E0C083C082C0E0900076120142D077
:10043800E0D082D083C0E074061412014DD0E0C031
:1004480083C082C0E090008A120142D0E0D082D0FE
:1004580083C0E0740A1412014DD0E0C083C082C08A
:10046800E090008F120142D0E0D082D083C0E074C7
:100478000B1412014DD0E0C083C082C0E0900091FF
:10048800120142D0E0D082D08312016A1201D30255
:1004980013F4D205C0E074011412014FD0E0C083F8
:1004A800C082C0E0900097120142D0E0D082D08391
:1004B800C0E074011412014DD0E0C083C082C0E0D6
:1004C800900097120142D0E0D082D083C0E074013E
:1004D8001412014FD0E0C083C082C0E090007C12AB
:1004E8000142D0E0D082D083C0E074011412014DE3
:1004F800D0E0C083C082C0E0900082120142D0E008
:10050800D082D083C0E074081412014DD0E0C0003E
:10051800A872120154D000E4856233856334F5353E
:10052800F5361206A0C0E0C0E074061412014FD0E0
:10053800E0D0E0120F8CC0E07443120103D0E0E475
:10054800856433856534F535F5361206A0C0E0C0FC
:10055800E0740C1412014FD0E0D0E0120F8CC0E010
:100568007443120103D0E0E4856033856134F535C6
:10057800F5360213B3C205C0E074011412014FD05E
:10058800E0C083C082C0E0900097120142D0E0D062
:1005980082D083C0E074021412014FD0E0C083C03F
:1005A80082C0E0900097120142D0E0D082D083C090
:1005B800E074011412014FD0E0C083C082C0E09003
:1005C8000070120142D0E0D082D083C0E0740614DB
:1005D80012014FD0E0C083C082C0E090008A1201AF
:1005E80042D0E0D082D083C0E0740A1412014FD008
:1005F800E0C083C082C0E090008F120142D0E0D0FA
:1006080082D083C0E0740B1412014FD0E0C083C0C5
:1006180082C0E0900091120142D0E0D082D083C025
:10062800E074011412014DD0E0C083C082C0E09094
:100638000076120142D0E0D082D083C0E074061464
:1006480012014DD0E0C083C082C0E090008A120140
:1006580042D0E0D082D083C0E0740A1412014DD099
:10066800E0C083C082C0E090008F120142D0E0D089
:1006780082D083C0E0740B1412014DD0E0C083C057
:1006880082C0E0900091120142D0E0D082D0831263
:08069800016A1201D30213B341
:1006A000C0E0C0D0C000C001C002E4F53BF53CF59D
:1006B0003DF53EF53F7A20E536A2E779047833E64A
:1006C00033F608D9FA7905783BE636D4F608D9F935
:1006D000DAE5D002D001D000D0D0D0E022C0E0C016
:1006E000D0C000C001C002E4F53BF53CF53DF53E4D
:1006F000F53F7A20E536A2E779047833E633F60849
:10070000D9FA7905783BC0D0E6243320E70224D01B
:1007100020E30224FDD0D033F608D9EADAD6D0029D
:10072000D001D000D0D0D0E022C0E0C0D0C000C006
:1007300001C0027A207905C3783FE613C0D030E7C4
:100740000224D030E30224FDF618D0D0D9EC79048D
:100750007836E613F618D9FADADBD002D001D000E9
:10076000D0D0D0E022C0E0C0D0E5332537F533E566
:10077000343538F534E5353539F535E536353AF57E
:1007800036D0D0D0E022C0E0C0D0C3E5339537F5F5
:1007900033E5349538F534E5359539F535E5369555
:1007A0003AF536D0D0D0E022C0E0C0D0C3E53395D2
:1007B00037E5349538E5359539E536953A9200D0E8
:1007C000D0D0E022C0E0C0D0C3E5379533E53895FE
:1007D00034E5399535E53A95369200D0D0D0E0220F
:1007E000C0E0C0D0C200C3E53795337014E538953A
:1007F00034700EE53995357008E53A95367002D2B9
:1008000000D0D0D0E0221207E02000030207C4226B
:100810001207E02000030207A822C0E0C0F0C0D009
:10082000C000C001C002C003E5338537F0A4F8A9B9
:10083000F0E5348537F0A429F9E435F0FAE533859D
:1008400038F0A429F9E5F03AFAE433FBE5358537C9
:10085000F0A42AFAE5F03BFBE5348538F0A42AFA47
:10086000E5F03BFBE5338539F0A42AFAE5F03BFBE4
:10087000E5368537F0A42BFBE5358538F0A42BFB56
:10088000E5348539F0A42BFBE533853AF0A42BFB46
:100890008B368A3589348833D003D002D001D0001A
:1008A000D0D0D0F0D0E022C0E0C0D0C000C001C0A5
:1008B00002C003C0047C20E4F8F9FAFBC3E533333B
:1008C000F533E53433F534E53533F535E53633F5D1
:1008D00036E833F8E933F9EA33FAEB33FBC3E8954A
:1008E00037E99538EA9539EB953A4013E89537F8AA
:1008F000E99538F9EA9539FAEB953AFB433301DC8F
:10090000BBD004D003D002D001D000D0D0D0E022A0
:1009100075CDFE75CCB275CFFE75CEB275F980750A
:10092000C980D2ECD2C82275E900C0E0C0D0E53061
:1009300045314532601574FF1530B530071531B5B6
:1009400031021532120D44F5F58006C2C8D2A4C298
:10095000A7D0D0D0E03200002D0031070070070092
:10096000ADB900F2660135D5017D3301C7610212D0
:10097000790249C1028F7A02D063031B8703630E99
:1009800003B95F04113A0466C404C0120526980531
:1009900074E905D28E061D8306634206AAB906F3E2
:1009A000D6073F020030DA003F00003DB20044AD00
:1009B00000436F00475E004A2E004B180037480086
:1009C00045B90040E9004B240047870056510057C5
:1009D000DB00558A00594E006686004E51005DA529
:1009E000004AF50045BF00477700491D004B2C0029
:1009F0005C87D2A7C2C8D2A475F003A4F8C2A474BD
:100A000003120D44900956E893120D44A3E8931283
:100A10000D44A3E893120D449009A4E893F532A382
:100A2000E893F531A3E893F5307400120D44D2C871
:100A300022E532B4001330070FC3E530941450059B
:100A4000753201800375320322B40109E5301209C1
:100A5000F275320222B4020720C80375320622B4AE
:100A6000030FE53075F00A8424121209F27532047E
:100A700022B4040720C80375320522B40511E530FD
:100A800075F00A84E5F060031209F275320222B4AF
:100A9000060974181209F275320722B4071320C828
:100AA0000FC3E53194145005753208809B75320AE6
:100AB00022B40809E5311209F275320922B4090796
:100AC00020C80375320D22B40A0FE53175F00A848F
:100AD00024121209F275320B22B40B0720C80375D9
:100AE000320C22B40C11E53175F00A84E5F0600394
:100AF0001209F275320922B40D0974191209F2753E
:100B0000320E22B40E0920C805C2077532002275C4
:050B10003200C20722C3
:100B15007812D8FE227533007534007535007536A8
:100B2500007D64753A0075390075380085F4371213
:100B35000765120B15DDEC753764753800753900DE
:100B4500753A001208A7227840790F120CDBC0E035
:100B5500C39410D0E04014F608D90E74FFF540F5A3
:100B650041F542F543F544800280E0E4F6223098F1
:100B7500FDC298E59922C0E0E8C4540F4430120C38
:100B8500D3E8540F4430120CD3D0E022C0027AFAD5
:100B95001200B1D002C0027AFA1200B1D002C0022E
:100BA5007AFA1200B1D002C0027AFA1200B1D0026C
:100BB500223099FDC299F59922E4936006120CD36F
:060BC500A380F6220A00E5
:100BCB00120BCF2285C75E120B1A853360853461F9
:100BDB00120BDF22C0E0E4F540F541F542F543F599
:100BEB0044E4856033856134F535F5361206A0C0D3
:100BFB0000A83D120B7BD000C000A83C120B7BD091
:100C0B0000C000A83B120B7BD000900BC9120BBE8F
:100C1B00855E33E4F534F535F5367537E475380C08
:100C2B00753900753A0012081A7537FF753800755B
:100C3B003900753A001208A77537AA75380A753945
:100C4B0000753A0012078675370A7538007539003A
:100C5B00753A001208A7753703753800753900759A
:100C6B003A00120786853364853465120B4CE540D8
:100C7B00540FC4F8E541540F48F53CE542540FC4FA
:100C8B00F8E543540F48F53BE4F53DF53EF53F12CF
:100C9B000729853360853461E4856437856538F5CC
:100CAB0039F53A120765853362853463D0E02275D6
:100CBB00840075850075910075920075A40075A56B
:100CCB000075B10075B2002210990280FBF59922D4
:100CDB0010980280FBE5992275BD0075BF0075BEAB
:100CEB007075BD037598525391FC5392FC2243844B
:100CFB001043851075A12875970475F580224384E0
:100D0B00015385FE43918053927F43A40353A5FC6B
:100D1B00D2C275A12075A30C758E05E58E30E3FB51
:100D2B002290FFDEE04408F02253A4CB43A53443CA
:100D3B00A40853A5F775E2D022F5E3E5E130E7FB14
:100D4B00F5E1E5E322C2A47406120D44D2A422C23B
:100D5B00A47405120D447455120D44D2A420E0EF77
:100D6B002200102030405060708191A1B1C1D1E1BF
:100D7B00F112023222524272629383B3A3D3C3F3B2
:100D8B00E32434041464744454A5B58595E5F5C582
:100D9B00D53626160676665646B7A79787F7E7D752
:100DAB00C74858687808182838C9D9E9F98999A922
:100DBB00B95A4A7A6A1A0A3A2ADBCBFBEB9B8BBBF2
:100DCB00AB6C7C4C5C2C3C0C1CEDFDCDDDADBD8DC2
:100DDB009D7E6E5E4E3E2E1E0EFFEFDFCFBFAF9F92
:100DEB008F9181B1A1D1C1F1E11000302050407041
:100DFB00608393A3B3C3D3E3F30212223242526252
:100E0B0072B5A59585F5E5D5C534241404746454E1
:100E1B0044A7B78797E7F7C7D726360616667646F1
:100E2B0056D9C9F9E99989B9A95848786818083881
:100E3B0028CBDBEBFB8B9BABBB4A5A6A7A0A1A2A91
:100E4B003AFDEDDDCDBDAD9D8D7C6C5C4C3C2C1C21
:100E5B000CEFFFCFDFAFBF8F9F6E7E4E5E2E3E0E31
:100E6B001E0021426384A5C6E708294A6B8CADCED0
:100E7B00EF31107352B594F7D639187B5ABD9CFFDE
:100E8B00DE62432001E6C7A4856A4B2809EECFAC8E
:100E9B008D53721130D7F695B45B7A1938DFFE9DFE
:100EAB00BCC4E586A740610223CCED8EAF48690A2E
:100EBB002BF5D4B79671503312FDDCBF9E79583B9E
:100ECB001AA687E4C522036041AE8FECCD2A0B68CE
:100EDB004997B6D5F4133251709FBEDDFC1B3A59BE
:100EEB007888A9CAEB0C2D4E6F80A1C2E30425466E
:100EFB0067B998FBDA3D1C7F5EB190F3D23514775E
:100F0B0056EACBA8896E4F2C0DE2C3A0816647240D
:100F1B0005DBFA99B85F7E1D3CD3F291B05776157D
:100F2B00344C6D0E2FC8E98AAB44650627C0E182AD
:100F3B00A37D5C3F1EF9D8BB9A75543716F1D0B31D
:100F4B00922E0F6C4DAA8BE8C926076445A283E04D
:100F5B00C11F3E5D7C9BBAD9F81736557493B2D13D
:100F6B00F043483320434832204348312043483034
:100F7B000078787820787878207878782078787866
:100F8B0000E53C540F4430120103E53BC4540F44BD
:100F9B0030120103E53B540F44301201032285F458
:100FAB00337534007535007536001206A0C0E07439
:100FBB00011412014DD0E0120F8C85C7337534002C
:100FCB007535007536001206A0C0E07405141201C9
:100FDB004DD0E0120F8C85C6337534007535007516
:100FEB0036001206A0C0E074091412014DD0E012B5
:100FFB000F8C85C5337534007535007536001206B8
:10100B00A0C0E0740D1412014DD0E0120F8CC00281
:10101B007AFA1200B1D00222C0E0E56BC39563509F
:10102B0012E56CC39562500B021039D0E022D2A6A8
:10103B00D0E022C2A6D0E022C2EC32E589540F44A4
:10104B0010F589758D6F758BFFD2ABD28E22758D96
:10105B006F758BFFC0E0C0D00574E574B4C821D2A6
:10106B0002757400E5772499D4F577B499127577E6
:10107B0059E5782499D4F578B49905D2037578009D
:10108B00D0D0D0E03275817F120CE3120CBA120D66
:10109B0009120CF912010D120D2C12091012104627
:1010AB00120D34D2A6C28EC2C8C2A7C207753200B7
:1010BB00D2AF753100753000756C00756F00756AB5
:1010CB0000756D00757000756C00756F007577009D
:1010DB00757800757B00757C00757D00757E00C092
:1010EB00E074011412014FD0E0C083C082C0E090C5
:1010FB000070120142D0E0D082D083C0E07406149D
:10110B0012014FD0E0C083C082C0E090008A120170
:10111B0042D0E0D082D083C0E0740A1412014FD0C9
:10112B00E0C083C082C0E090008F120142D0E0D0BB
:10113B0082D083C0E0740B1412014FD0E0C083C087
:10114B0082C0E0900091120142D0E0D082D083C0E7
:10115B00E074011412014DD0E0C083C082C0E09056
:10116B000076120142D0E0D082D083C0E074061426
:10117B0012014DD0E0C083C082C0E090008A120102
:10118B0042D0E0D082D083C0E0740A1412014DD05B
:10119B00E0C083C082C0E090008F120142D0E0D04B
:1011AB0082D083C0E0740B1412014DD0E0C083C019
:1011BB0082C0E0900091120142D0E0D082D0830235
:1011CB0011CD20A631C0027A321200B1D00220A676
:1011DB002530A6FDE4F56CF57BF57C12016A021156
:1011EB00CD20B0DEC0027A321200B1D00220B0D2D4
:1011FB0030B0FD02128B208229C0027A321200B16C
:10120B00D00220821D3082FDE56CB49007E56D2481
:10121B0001D4F56DE56C2410D4F56CE412016A026F
:10122B0011CD20832CC0027A321200B1D002208360
:10123B00203083FDE57BB4590C7400D4F57BE412AC
:10124B00016A0211CD2401D4F57BE412016A02116B
:10125B00CD20818DC0027A321200B1D00220818163
:10126B003081FDE57CB4590C7400D4F57CE412019B
:10127B006A0211CD2401D4F57CE412016A0211CD6E
:10128B0020A61CC0027A321200B1D00220A6103068
:10129B00A6FDE4F56FF57DF57E1201D302128B20CE
:1012AB008229C0027A321200B1D00220821D308214
:1012BB00FDE56FB49007E5702401D4F570E56F245C
:1012CB0010D4F56FE41201D302128B208353C002AA
:1012DB007A321200B1D0022083473083FDE57DB412
:1012EB00590C7400D4F57DE41201D302128B240146
:1012FB00D4F57DE41201D302128B20B021C0027A07
:10130B00321200B1D00220B01530B0FDE4F534F547
:10131B0035F536856C6A757760D28E02135B0212D7
:10132B008B2081D6C0027A321200B1D0022081CA42
:10133B003081FDE57EB4590C7400D4F57EE41201C6
:10134B00D302128B2401D4F57EE41201D302128B4B
:10135B007460C395775007C28ED2A602128B120B04
:10136B00CBC2A620B142C0027A321200B1D0022009
:10137B00B13630B1FDE56275F06484B40002800AC9
:10138B00C0F01209F220C8FDD0F0E5F075F00A8428
:10139B00C0F01209F220C8FDD0F0E5F01209F220DE
:1013AB00C8FD20054130053B120BCB757299856C3E
:1013BB003B856D3C753D00753E00753F001207295E
:1013CB00E534C3956350030213DCE533C3956250D8
:1013DB000F857B78857C77C203C204D28E0213F40F
:1013EB0002135B02049A02057D120BCB20041185BC
:1013FB006C3B856D3C753D00753E00753F00800F65
:10140B00856F3B85703C753D00753E00753F001246
:10141B000729E534C395635003021432E533C395B2
:10142B00625004D2A68016C2A6C0027A141200B172
:10143B00D002D2A6C0027A501200B1D0027572202F
:10144B0030020D200337C20220052902028E8000D4
:10145B0020A62DC0027A321200B1D00220A6213074
:10146B00A6FDC28EE475770075780012016A120131
:10147B00D30211CD0202940203770213F402150674
:10148B0020B05EC0027A321200B1D00220B05230CE
:10149B00B0FDC28EC2A60211CD20B1DEC0027A32DF
:1014AB001200B1D00220B1D230B1FDE56275F0640B
:1014BB0084B40002800AC0F01209F220C8FDD0F0FB
:1014CB00E5F075F00A84C0F01209F220C8FDD0F0E7
:1014DB00E5F01209F220C8FD20059C300596021399
:1014EB00F42082B5C0027A321200B1D0022082A958
:1014FB00857731857830D2070213F4C28EE4856F7D
:10150B006A300406756A000215A7120BCBC2A6201F
:10151B00B142C0027A321200B1D00220B13630B1E2
:10152B00FDE56275F06484B40002800AC0F0120914
:10153B00F220C8FDD0F0E5F075F00A84C0F0120976
:10154B00F220C8FDD0F0E5F01209F220C8FD20050D
:10155B003230052C120BCB757299856F3B85703C25
:10156B00753D00753E00753F00120729E534C395A4
:10157B00635003021591E533C39562508D021591AB
:10158B00020294020377C203D204857D78857E77AD
:10159B00C203D204D28E856F6A0213F4120BCBD224
:1015AB00A620B142C0027A321200B1D00220B1366D
:1015BB0030B1FDE56275F06484B40002800AC0F0BE
:1015CB001209F220C8FDD0F0E5F075F00A84C0F0E6
:1015DB001209F220C8FDD0F0E5F01209F220C8FD87
:1015EB002005A030059A120BCB757200E563C394EE
:1015FB00005003021608E562C39460509FC28EC26E
:10160B0003C204756C00756F0075770075780075F3
:10161B007B00757C00757D00757E0012016A1201DE
:04162B00D30211CD08
:00000001FF
