:030000000210816A
:0100030032CA
:01000B0032C2
:0100130032BA
:03001B0002104A86
:0100230032AA
:03005B0002092770
:10005E0048656C6C6F20576F726C64210D0A000D31
:10006E000A00536F616B3A005265666C3A00546534
:10007E006D703A00506F7765723A2500303030431C
:10008E0000200030303A3030002020202020202068
:0A009E002020202020202020200038
:1000A800C000784AD8FED00022C000C001790A7882
:1000B800B8D8FED9FADAF6D001D000227A1479FA43
:1000C80078B8D8FED9FADAF622D2871200A8C28701
:1000D8001200A822A2E79296A2E69294A2E5929331
:1000E800A2E492921200D1A2E39296A2E29294A282
:1000F800E19293A2E092921200D122D2850200DC12
:10010800C2850200DCC287C286C0027A281200B10A
:10011800D0027433120108743312010874321201C8
:10012800087428120108740C1201087401120108DD
:10013800C0027A021200B1D00222E49360061201D2
:1001480003A380F62244404480020108C0E0E8C4CA
:10015800540F4430120103E8540F4430120103D005
:10016800E022C0E074071412014FD0E0C000A86C70
:10017800120154D000C0E074051412014FD0E0C041
:1001880000A86D120154D000C0E074011412014F90
:10019800D0E0C083C082C0E0900070120142D0E07D
:1001A800D082D083C0E0740B1412014FD0E0C0009D
:1001B800A87B120154D000C0E0740E1412014FD075
:1001C800E0C000A87C120154D00022C0E0740714DB
:1001D80012014DD0E0C000A86F120154D000C0E059
:1001E80074051412014DD0E0C000A870120154D05B
:1001F80000C0E074011412014DD0E0C083C082C079
:10020800E0900076120142D0E0D082D083C0E07442
:100218000B1412014DD0E0C000A87D120154D0008B
:10022800C0E0740E1412014DD0E0C000A87E120187
:1002380054D00022C0E0740B1412014FD0E0C0006B
:10024800A878120154D000C0E0740E1412014FD0E7
:10025800E0C000A877120154D0000213D2C0E074A5
:100268000B1412014DD0E0C000A878120154D00040
:10027800C0E0740E1412014DD0E0C000A87712013E
:1002880054D0000213D23004AB2004D1D205C0E010
:1002980074011412014FD0E0C083C082C0E0900006
:1002A80097120142D0E0D082D083C0E074011412CA
:1002B800014DD0E0C083C082C0E090009712014297
:1002C800D0E0D082D083C0E074011412014FD0E096
:1002D800C083C082C0E090007C120142D0E0D0828E
:1002E800D083C0E074011412014DD0E0C083C082F5
:1002F800C0E0900082120142D0E0D082D083C0E0FA
:1003080074081412014DD0E0C000A872120154D034
:1003180000E4856233856334F535F5361206A0C0EE
:10032800E0C0E074061412014FD0E0D0E0120F7D57
:10033800C0E07443120103D0E0E48564338565347A
:10034800F535F5361206A0C0E0C0E0740C141201B1
:100358004FD0E0D0E0120F7DC0E07443120103D00B
:10036800E0E4856033856134F535F5360213D2C291
:1003780005C0E074011412014FD0E0C083C082C0F0
:10038800E0900097120142D0E0D082D083C0E074A0
:10039800021412014FD0E0C083C082C0E0900097E1
:1003A800120142D0E0D082D083C0E074011412015F
:1003B8004FD0E0C083C082C0E0900070120142D0EC
:1003C800E0D082D083C0E074061412014FD0E0C0A0
:1003D80083C082C0E090008A120142D0E0D082D06F
:1003E80083C0E0740A1412014FD0E0C083C082C0F9
:1003F800E090008F120142D0E0D082D083C0E07438
:100408000B1412014FD0E0C083C082C0E09000916D
:10041800120142D0E0D082D083C0E07401141201EE
:100428004DD0E0C083C082C0E0900076120142D077
:10043800E0D082D083C0E074061412014DD0E0C031
:1004480083C082C0E090008A120142D0E0D082D0FE
:1004580083C0E0740A1412014DD0E0C083C082C08A
:10046800E090008F120142D0E0D082D083C0E074C7
:100478000B1412014DD0E0C083C082C0E0900091FF
:10048800120142D0E0D082D08312016A1201D30255
:1004980013D2D205C0E074011412014FD0E0C0831A
:1004A800C082C0E0900097120142D0E0D082D08391
:1004B800C0E074011412014DD0E0C083C082C0E0D6
:1004C800900097120142D0E0D082D083C0E074013E
:1004D8001412014FD0E0C083C082C0E090007C12AB
:1004E8000142D0E0D082D083C0E074011412014DE3
:1004F800D0E0C083C082C0E0900082120142D0E008
:10050800D082D083C0E074081412014DD0E0C0003E
:10051800A872120154D000E4856233856334F5353E
:10052800F5361206A0C0E0C0E074061412014FD0E0
:10053800E0D0E0120F7DC0E07443120103D0E0E484
:10054800856433856534F535F5361206A0C0E0C0FC
:10055800E0740C1412014FD0E0D0E0120F7DC0E01F
:100568007443120103D0E0E4856033856134F535C6
:10057800F536021394C205C0E074011412014FD07D
:10058800E0C083C082C0E0900097120142D0E0D062
:1005980082D083C0E074021412014FD0E0C083C03F
:1005A80082C0E0900097120142D0E0D082D083C090
:1005B800E074011412014FD0E0C083C082C0E09003
:1005C8000070120142D0E0D082D083C0E0740614DB
:1005D80012014FD0E0C083C082C0E090008A1201AF
:1005E80042D0E0D082D083C0E0740A1412014FD008
:1005F800E0C083C082C0E090008F120142D0E0D0FA
:1006080082D083C0E0740B1412014FD0E0C083C0C5
:1006180082C0E0900091120142D0E0D082D083C025
:10062800E074011412014DD0E0C083C082C0E09094
:100638000076120142D0E0D082D083C0E074061464
:1006480012014DD0E0C083C082C0E090008A120140
:1006580042D0E0D082D083C0E0740A1412014DD099
:10066800E0C083C082C0E090008F120142D0E0D089
:1006780082D083C0E0740B1412014DD0E0C083C057
:1006880082C0E0900091120142D0E0D082D0831263
:08069800016A1201D302139460
:1006A000C0E0C0D0C000C001C002E4F53BF53CF59D
:1006B0003DF53EF53F7A20E536A2E779047833E64A
:1006C00033F608D9FA7905783BE636D4F608D9F935
:1006D000DAE5D002D001D000D0D0D0E022C0E0C016
:1006E000D0C000C001C002E4F53BF53CF53DF53E4D
:1006F000F53F7A20E536A2E779047833E633F60849
:10070000D9FA7905783BC0D0E6243320E70224D01B
:1007100020E30224FDD0D033F608D9EADAD6D0029D
:10072000D001D000D0D0D0E022C0E0C0D0C000C006
:1007300001C0027A207905C3783FE613C0D030E7C4
:100740000224D030E30224FDF618D0D0D9EC79048D
:100750007836E613F618D9FADADBD002D001D000E9
:10076000D0D0D0E022C0E0C0D0E5332537F533E566
:10077000343538F534E5353539F535E536353AF57E
:1007800036D0D0D0E022C0E0C0D0C3E5339537F5F5
:1007900033E5349538F534E5359539F535E5369555
:1007A0003AF536D0D0D0E022C0E0C0D0C3E53395D2
:1007B00037E5349538E5359539E536953A9200D0E8
:1007C000D0D0E022C0E0C0D0C3E5379533E53895FE
:1007D00034E5399535E53A95369200D0D0D0E0220F
:1007E000C0E0C0D0C200C3E53795337014E538953A
:1007F00034700EE53995357008E53A95367002D2B9
:1008000000D0D0D0E0221207E02000030207C4226B
:100810001207E02000030207A822C0E0C0F0C0D009
:10082000C000C001C002C003E5338537F0A4F8A9B9
:10083000F0E5348537F0A429F9E435F0FAE533859D
:1008400038F0A429F9E5F03AFAE433FBE5358537C9
:10085000F0A42AFAE5F03BFBE5348538F0A42AFA47
:10086000E5F03BFBE5338539F0A42AFAE5F03BFBE4
:10087000E5368537F0A42BFBE5358538F0A42BFB56
:10088000E5348539F0A42BFBE533853AF0A42BFB46
:100890008B368A3589348833D003D002D001D0001A
:1008A000D0D0D0F0D0E022C0E0C0D0C000C001C0A5
:1008B00002C003C0047C20E4F8F9FAFBC3E533333B
:1008C000F533E53433F534E53533F535E53633F5D1
:1008D00036E833F8E933F9EA33FAEB33FBC3E8954A
:1008E00037E99538EA9539EB953A4013E89537F8AA
:1008F000E99538F9EA9539FAEB953AFB433301DC8F
:10090000BBD004D003D002D001D000D0D0D0E022A0
:1009100075CDFE75CCB275CFFE75CEB275F980750A
:10092000C980D2ECD2C82275E900C0E0C0D0E53061
:1009300045314532601574FF1530B530071531B5B6
:1009400031021532120D35F5F58006C2C8D2A4C2A7
:10095000A7D0D0D0E03200002D0031070070070092
:10096000ADB900F2660135D5017D3301C7610212D0
:10097000790249C1028F7A02D063031B8703630E99
:1009800003B95F04113A0466C404C0120526980531
:1009900074E905D28E061D8306634206AAB906F3E2
:1009A000D6073F020030DA003F00003DB20044AD00
:1009B00000436F00475E004A2E004B180037480086
:1009C00045B90040E9004B240047870056510057C5
:1009D000DB00558A00594E006686004E51005DA529
:1009E000004AF50045BF00477700491D004B2C0029
:1009F0005C87D2A7C2C8D2A475F003A4F8C2A474BD
:100A000003120D35900956E893120D35A3E89312A1
:100A10000D35A3E893120D359009A4E893F532A3A0
:100A2000E893F531A3E893F5307400120D35D2C880
:100A300022E532B4001330070FC3E530941450059B
:100A4000753201800375320322B40109E5301209C1
:100A5000F275320222B4020720C80375320622B4AE
:100A6000030FE53075F00A8424121209F27532047E
:100A700022B4040720C80375320522B40511E530FD
:100A800075F00A84E5F060031209F275320222B4AF
:100A9000060974181209F275320722B4071320C828
:100AA0000FC3E53194145005753208809B75320AE6
:100AB00022B40809E5311209F275320922B4090796
:100AC00020C80375320D22B40A0FE53175F00A848F
:100AD00024121209F275320B22B40B0720C80375D9
:100AE000320C22B40C11E53175F00A84E5F0600394
:100AF0001209F275320922B40D0974191209F2753E
:100B0000320E22B40E0920C805C2077532002275C4
:050B10003200C20722C3
:100B15007812D8FE227533007534007535007536A8
:100B2500007D64753A0075390075380085F4371213
:100B35000765120B15DDEC753764753800753900DE
:100B4500753A001208A7227840790F120CCCC0E044
:100B5500C39410D0E04014F608D90E74FFF540F5A3
:100B650041F542F543F544800280E0E4F6223098F1
:100B7500FDC298E59922C0E0E8C4540F4430120C38
:100B8500C4E8540F4430120CC4D0E022C0027AFAF3
:100B95001200B1D002C0027AFA1200B1D002C0022E
:100BA5007AFA1200B1D002C0027AFA1200B1D0026C
:100BB500223099FDC299F59922E4936006120CC47E
:060BC500A380F6220A00E5
:100BCB00120BCF2285C75E120B1A853360853461F9
:100BDB00120BDF22C0E0E4F540F541F542F543F599
:100BEB0044E4856033856134F535F5361206A0C0D3
:100BFB0000A83D120B7BD000C000A83C120B7BD091
:100C0B0000C000A83B120B7BD000900BC9120BBE8F
:100C1B00855E33E4F534F535F5367537E475380C08
:100C2B00753900753A0012081A7537FF753800755B
:100C3B003900753A001208A77537AA75380A753945
:100C4B0000753A0012078675370A7538007539003A
:100C5B00753A001208A7853364853465120B4CE591
:100C6B0040540FC4F8E541540F48F53CE542540F8E
:100C7B00C4F8E543540F48F53BE4F53DF53EF53F2D
:100C8B00120729853360853461E4856437856538BF
:100C9B00F539F53A120765853362853463D0E02266
:100CAB0075840075850075910075920075A40075AB
:100CBB00A50075B10075B2002210990280FBF59961
:100CCB002210980280FBE5992275BD0075BF007557
:100CDB00BE7075BD037598525391FC5392FC224321
:100CEB00841043851075A12875970475F5802243F0
:100CFB0084015385FE43918053927F43A40353A5F4
:100D0B00FCD2C275A12075A30C758E05E58E30E360
:100D1B00FB2290FFDEE04408F02253A4CB43A53422
:100D2B0043A40853A5F775E2D022F5E3E5E130E7DC
:100D3B00FBF5E1E5E322C2A47406120D35D2A42221
:100D4B00C2A47405120D357455120D35D2A420E0D2
:100D5B00EF2200102030405060708191A1B1C1D1C1
:100D6B00E1F112023222524272629383B3A3D3C3D4
:100D7B00F3E32434041464744454A5B58595E5F564
:100D8B00C5D53626160676665646B7A79787F7E774
:100D9B00D7C74858687808182838C9D9E9F9899904
:100DAB00A9B95A4A7A6A1A0A3A2ADBCBFBEB9B8B14
:100DBB00BBAB6C7C4C5C2C3C0C1CEDFDCDDDADBDA4
:100DCB008D9D7E6E5E4E3E2E1E0EFFEFDFCFBFAFB4
:100DDB009F8F9181B1A1D1C1F1E110003020504022
:100DEB0070608393A3B3C3D3E3F302122232425254
:100DFB006272B5A59585F5E5D5C5342414047464E4
:100E0B005444A7B78797E7F7C7D7263606166676F3
:100E1B004656D9C9F9E99989B9A958487868180883
:100E2B003828CBDBEBFB8B9BABBB4A5A6A7A0A1A93
:100E3B002A3AFDEDDDCDBDAD9D8D7C6C5C4C3C2C23
:100E4B001C0CEFFFCFDFAFBF8F9F6E7E4E5E2E3E33
:100E5B000E1E0021426384A5C6E708294A6B8CADA0
:100E6B00CEEF31107352B594F7D639187B5ABD9C1F
:100E7B00FFDE62432001E6C7A4856A4B2809EECF4B
:100E8B00AC8D53721130D7F695B45B7A1938DFFEFF
:100E9B009DBCC4E586A740610223CCED8EAF4869AB
:100EAB000A2BF5D4B79671503312FDDCBF9E7958DF
:100EBB003B1AA687E4C522036041AE8FECCD2A0B0B
:100ECB00684997B6D5F4133251709FBEDDFC1B3ABF
:100EDB00597888A9CAEB0C2D4E6F80A1C2E304256B
:100EEB004667B998FBDA3D1C7F5EB190F3D235149F
:100EFB007756EACBA8896E4F2C0DE2C3A0816647CB
:100F0B002405DBFA99B85F7E1D3CD3F291B057767E
:100F1B0015344C6D0E2FC8E98AAB44650627C0E12A
:100F2B0082A37D5C3F1EF9D8BB9A75543716F1D05E
:100F3B00B3922E0F6C4DAA8BE8C926076445A2838A
:100F4B00E0C11F3E5D7C9BBAD9F81736557493B23E
:100F5B00D1F04348332043483220434831204348A3
:100F6B0030007878782078787820787878207878BE
:100F7B007800E53C540F4430120103E53BC4540F99
:100F8B004430120103E53B540F4430120103228518
:100F9B00F4337534007535007536001206A0C0E0C9
:100FAB0074011412014DD0E0120F7D85C7337534D7
:100FBB00007535007536001206A0C0E074051412DA
:100FCB00014DD0E0120F7D85C633753400753500A9
:100FDB007536001206A0C0E074091412014DD0E062
:100FEB00120F7D85C53375340075350075360012CB
:100FFB0006A0C0E0740D1412014DD0E0120F7DC09D
:10100B00027AFA1200B1D00222C0E0E56BC39563FD
:10101B005012E56CC39562500B02102AD0E022D21D
:10102B00A6D0E022C2A6D0E022C2EC32E589540F52
:10103B004410F589758D6F758BFFD2ABD28E2275EF
:10104B008D6F758BFFC0E0C0D00574E574B4C821FB
:10105B00D202757400E5772499D4F577B49912759B
:10106B007759E5782499D4F578B49905D203757836
:10107B0000D0D0D0E03275817F120CD4120CAB12A1
:10108B000CFA120CEA12010D120D1D12091012109E
:10109B0037120D25D2A6C28EC2C8C2A7C20775329F
:1010AB0000D2AF753100753000756C00756F00752F
:1010BB006A00756D00757000756C00756F00757743
:1010CB0000757800757B00757C00757D00757E0062
:1010DB00C0E074011412014FD0E0C083C082C0E0A5
:1010EB00900070120142D0E0D082D083C0E0740631
:1010FB001412014FD0E0C083C082C0E090008A126E
:10110B000142D0E0D082D083C0E0740A1412014FA8
:10111B00D0E0C083C082C0E090008F120142D0E0CB
:10112B00D082D083C0E0740B1412014FD0E0C08387
:10113B00C082C0E0900091120142D0E0D082D083F7
:10114B00C0E074011412014DD0E0C083C082C0E036
:10115B00900076120142D0E0D082D083C0E07406BA
:10116B001412014DD0E0C083C082C0E090008A12FF
:10117B000142D0E0D082D083C0E0740A1412014D3A
:10118B00D0E0C083C082C0E090008F120142D0E05B
:10119B00D082D083C0E0740B1412014DD0E0C08319
:1011AB00C082C0E0900091120142D0E0D082D08387
:1011BB000211BE20A631C0027A321200B1D0022039
:1011CB00A62530A6FDE4F56CF57BF57C12016A02D1
:1011DB0011BE20B0DEC0027A321200B1D00220B0B4
:1011EB00D230B0FD02127C208229C0027A3212006A
:1011FB00B1D00220821D3082FDE56CB49007E56D05
:10120B002401D4F56DE56C2410D4F56CE412016A5D
:10121B000211BE20832CC0027A321200B1D0022000
:10122B0083203083FDE57BB4590C7400D4F57BE44B
:10123B0012016A0211BE2401D4F57BE412016A0289
:10124B0011BE20818DC0027A321200B1D0022081F2
:10125B00813081FDE57CB4590C7400D4F57CE4122B
:10126B00016A0211BE2401D4F57CE412016A021159
:10127B00BE20A61CC0027A321200B1D00220A610EA
:10128B0030A6FDE4F56FF57DF57E1201D302127CDD
:10129B00208229C0027A321200B1D00220821D3086
:1012AB0082FDE56FB49007E5702401D4F570E56F0E
:1012BB002410D4F56FE41201D302127C208353C0A7
:1012CB00027A321200B1D0022083473083FDE57DD4
:1012DB00B4590C7400D4F57DE41201D302127C24B2
:1012EB0001D4F57DE41201D302127C20B021C0029F
:1012FB007A321200B1D00220B01530B0FDE4F534D3
:10130B00F535F536856C6A757760D28E02134C0213
:10131B00127C2081D6C0027A321200B1D002208119
:10132B00CA3081FDE57EB4590C7400D4F57EE4120D
:10133B0001D302127C2401D4F57EE41201D30212F4
:10134B007C7460C395775007C28ED2A602127C12B2
:10135B000BCBC2A620B132C0027A321200B1D0023E
:10136B0020B12630B1FD8562331206DD75370A7563
:10137B003800753900753A001208A7E5331209F2E7
:10138B0020C8FD20053E300538120BCB75729985B0
:10139B006C3B856D3C753D00753E00753F0012073B
:1013AB0029E534C3956350030213BDE533C395623E
:1013BB00508F857B78857C77C203C204D28E021353
:1013CB00D202049A02057D120BCB200411856C3BD3
:1013DB00856D3C753D00753E00753F00800F856F38
:1013EB003B85703C753D00753E00753F001207292B
:1013FB00E534C395635003021410E533C395625073
:10140B0004D2A68016C2A6C0027A141200B1D00272
:10141B00D2A6C0027A501200B1D0027572203002EF
:10142B000D200337C20220052902028E800020A660
:10143B002DC0027A321200B1D00220A62130A6FDB7
:10144B00C28EE475770075780012016A1201D3021F
:10145B0011BE0202940203770213D20214D420B0FD
:10146B004EC0027A321200B1D00220B04230B0FD31
:10147B00C28EC2A60211BE20B1DEC0027A321200A9
:10148B00B1D00220B1D230B1FD8562331206DD75C9
:10149B00370A753800753900753A001208A7E5331D
:1014AB001209F220C8FD2005AC3005A60213D2208C
:1014BB0082C5C0027A321200B1D0022082B9857780
:1014CB0031857830D2070213D2C28EE4856F6A3031
:1014DB000406756A00021565120BCBC2A620B13249
:1014EB00C0027A321200B1D00220B12630B1FD8594
:1014FB0062331206DD75370A753800753900753A97
:10150B00001208A7E5331209F220C8FD200532307E
:10151B00052C120BCB757299856F3B85703C753D15
:10152B0000753E00753F00120729E534C3956350E3
:10153B000302154FE533C39562509D02154F02020E
:10154B0094020377C203D204857D78857E77C2032C
:10155B00D204D28E856F6A0213D2120BCBD2A62085
:10156B00B132C0027A321200B1D00220B12630B1B2
:10157B00FD8562331206DD75370A75380075390043
:10158B00753A001208A7E5331209F220C8FD2005B1
:10159B00B03005AA120BCB757200E563C3940050F3
:1015AB00030215B6E562C3946050AFC28EC203C28C
:1015BB0004756C00756F00757700757800757B008E
:1015CB00757C00757D00757E0012016A1201D302D5
:0215DB0011BE3F
:00000001FF
