:0300000002049F58
:0100030032CA
:03000B000204509C
:0100130032BA
:01001B0032B2
:0100230032AA
:03002B0002046C60
:10002E0048656C6C6F20576F726C64210D0A000D61
:10003E000A00536F616B3A005265666C3A00546564
:10004E006D703A003030304300200030303A30309E
:03005E000021007E
:10006100C0E0C0D0C000C001C002E4F538F539F5E8
:100071003AF53BF53C7A20E533A2E779047830E69E
:1000810033F608D9FA79057838E636D4F608D9F97D
:10009100DAE5D002D001D000D0D0D0E022C0E0C05B
:1000A100D0C000C001C002E4F538F539F53AF53B9E
:1000B100F53C7A20E533A2E779047830E633F60897
:1000C100D9FA79057838C0D0E6243320E70224D064
:1000D10020E30224FDD0D033F608D9EADAD6D002E3
:1000E100D001D000D0D0D0E022C0E0C0D0C000C04C
:1000F10001C0027A207905C3783CE613C0D030E70D
:100101000224D030E30224FDF618D0D0D9EC7904D2
:100111007833E613F618D9FADADBD002D001D00031
:10012100D0D0D0E022C0E0C0D0E5302534F530E5B4
:10013100313535F531E5323536F532E5333537F5DB
:1001410033D0D0D0E022C0E0C0D0C3E5309534F543
:1001510030E5319535F531E5329536F532E53395B2
:1001610037F533D0D0D0E022C0E0C0D0C3E5309520
:1001710034E5319535E5329536E53395379200D042
:10018100D0D0E022C0E0C0D0C3E5349530E535954C
:1001910031E5369532E53795339200D0D0D0E02263
:1001A100C0E0C0D0C200C3E53495307014E5359588
:1001B10031700EE53695327008E53795337002D20D
:1001C10000D0D0D0E0221201A1200003020185223B
:1001D1001201A120000302016922C0E0C0F0C0D0D9
:1001E100C000C001C002C003E5308534F0A4F8A905
:1001F100F0E5318534F0A429F9E435F0FAE53085EC
:1002010035F0A429F9E5F03AFAE433FBE532853417
:10021100F0A42AFAE5F03BFBE5318535F0A42AFA92
:10022100E5F03BFBE5308536F0A42AFAE5F03BFB2F
:10023100E5338534F0A42BFBE5328535F0A42BFBA7
:10024100E5318536F0A42BFBE5308537F0A42BFB97
:100251008B338A3289318830D003D002D001D0006B
:10026100D0D0D0F0D0E022C0E0C0D0C000C001C0EA
:1002710002C003C0047C20E4F8F9FAFBC3E5303383
:10028100F530E53133F531E53233F532E53333F528
:1002910033E833F8E933F9EA33FAEB33FBC3E89592
:1002A10034E99535EA9536EB95374013E89534F8FE
:1002B100E99535F9EA9536FAEB9537FB433001DCE0
:1002C100BBD004D003D002D001D000D0D0D0E022E6
:1002D100C00078B10000D8FCD00022C000C0017974
:1002E1002D78A6D8FED9FADAF6D001D000227A59B3
:1002F10079FA78A6D8FAD9FADAFA22D2931202D187
:10030100C29322A2E792B5A2E692B4A2E592B3A269
:10031100E492B21202FC1202D1A2E392B5A2E292DD
:10032100B4A2E192B3A2E092B21202FC22D29102F3
:100331000304C291020304C293C2927433120333C1
:100341007433120333743212033374281203337477
:100351000C1203337401120333C0027A021202DC5D
:10036100D00222E493600612032EA380F6224440B9
:100371004480020333C0E0E8C4540F443012032E1A
:10038100E8540F443012032ED0E022C0E074071469
:10039100120371D0E0C000A842120376D000C0E081
:1003A100740B14120371D0E0C000A848120376D078
:1003B10000C0E0740E14120371D0E0C000A849120D
:1003C1000376D00022C0E074071412036FD0E0C09E
:1003D10000A843120376D000C0E0740B1412036F1F
:1003E100D0E0C000A84A120376D000C0E0740E1419
:1003F10012036FD0E0C000A84B120376D00022D2C6
:10040100A2C2A322C0E079007A08E833F892A1D20F
:10041100A3A2A2E933F9C2A3DAF0D0E02279DE780F
:10042100A6D8FED9FA438780759852759B00759AB4
:10043100F4759B1E22C2CA32E58954F04401F58944
:10044100758CEA758AE875F4EA75F2E8D2A922B2E8
:10045100B73275C80075CDA975CC9A75CBA975CA87
:100461009AE4F544F545D2ADD2CA22C2CFB2B6C0A4
:10047100E0C0D00544E54470020545E544B4E819FF
:10048100E545B40314D201B28CE4F544F545E546E3
:10049100800280022499D4F546D0D0D0E032758113
:1004A1007F12033812043912045375E60075E70010
:1004B1007542007543007546007547007548007523
:1004C1004900754A00754B00C0E0740114120371B4
:1004D100D0E0C083C082C0E0900040120364D0E04D
:1004E100D082D083C0E0740614120371D0E0C083BF
:1004F100C082C0E0900052120364D0E0D082D08369
:10050100C0E0740A14120371D0E0C083C082C0E05D
:10051100900057120364D0E0D082D083C0E0740B06
:1005210014120371D0E0C083C082C0E09000591260
:100531000364D0E0D082D083C0E074011412036F51
:10054100D0E0C083C082C0E0900046120364D0E0D6
:10055100D082D083C0E074061412036FD0E0C08350
:10056100C082C0E0900052120364D0E0D082D083F8
:10057100C0E0740A1412036FD0E0C083C082C0E0EF
:10058100900057120364D0E0D082D083C0E0740B96
:100591001412036FD0E0C083C082C0E090005912F2
:1005A1000364D0E0D082D08312040012041ED2AFC3
:1005B100754600754700E546C0E0740B14120371DF
:1005C100D0E0C000A847120376D000C0E0740B143D
:1005D10012036FD0E0C000A846120376D0000205D6
:1005E100E220C531C0027A321202DCD00220C525D8
:1005F10030C5FDE4F542F548F54912038C0205E2E8
:1006010020A7DEC0027A321202DCD00220A7D2304B
:10061100A7FD02069420801DC0027A321202DCD0AE
:10062100022080113080FDE5422401D4F542E4121C
:10063100038C0205E220832CC0027A321202DCD044
:10064100022083203083FDE548B4590C7400D4F5B1
:1006510048E412038C0205E22401D4F548E41203B4
:100661008C0205E2208699C0027A321202DCD002A5
:1006710020868D3086FDE549B4590C7400D4F549C6
:10068100E412038C0205E22401D4F549E412038C3F
:100691000205E220C53DC0027A321202DCD00220FE
:1006A100C53130C5FDE4F543F54AF54B1203C602E9
:1006B100069420A7DEC0027A321202DCD00220A703
:1006C100D230A7FDD201D2CAD2A985484785494671
:1006D10002075220801DC0027A321202DCD00220B1
:1006E10080113080FDE5432401D4F543E41203C6B3
:1006F10002069420832CC0027A321202DCD002203E
:1007010083203083FDE54AB4590C7400D4F54AE4E2
:100711001203C60206942401D4F54AE41203C60268
:10072100069420868DC0027A321202DCD002208625
:10073100813086FDE54BB4590C7400D4F54BE412BD
:1007410003C60206942401D4F54BE41203C6020643
:100751009420C540C0027A321202DCD00220C53496
:1007610030C5FDC2CAE4F544F545F546F547D2CAA0
:100771000207D180DCB2B7C2A078011204057880EB
:10078100120405E954037855120405D2A01202EFB0
:100791001207FA2220A71BC0027A321202DCD00211
:1007A10020A70F30A7FDC2CAE4F544F545F546027E
:1007B10005E230019C0207B9C201E546B46011743B
:1007C10000F546E5472401D4F547B46003E4F54755
:1007D100C0E0740B14120371D0E0C000A8471203EB
:1007E10076D000C0E0740E14120371D0E0C000A8EE
:1007F10046120376D000020752853D30853E3175A1
:10080100320075330075349A7535017536007537C8
:10081100001201DB7534FF7535037536007537003D
:10082100120268753411753501753600753700127D
:10083100014712006112085B8538411200EA7534E4
:1008410011753501753600753700120147120061C7
:10085100C000A838120376D00022C0E0740614123A
:10086100036FD0E0C000A838120376D00022C2A0E6
:100871007801120405E5F0C454F0D2E7F81204053A
:0E088100E95403FF78551204058906D2A0221F
:00000001FF
