:0300000002049F58
:0100030032CA
:03000B00020440AC
:0100130032BA
:01001B0032B2
:0100230032AA
:03002B0002045C70
:10002E0048656C6C6F20576F726C64210D0A000D61
:10003E000A00536F616B3A005265666C3A00546564
:10004E006D703A004300200030303A30300021000D
:10005E00C0E0C0D0C000C001C002E4F538F539F5EB
:10006E003AF53BF53C7A20E533A2E779047830E6A1
:10007E0033F608D9FA79057838E636D4F608D9F980
:10008E00DAE5D002D001D000D0D0D0E022C0E0C05E
:10009E00D0C000C001C002E4F538F539F53AF53BA1
:1000AE00F53C7A20E533A2E779047830E633F6089A
:1000BE00D9FA79057838C0D0E6243320E70224D067
:1000CE0020E30224FDD0D033F608D9EADAD6D002E6
:1000DE00D001D000D0D0D0E022C0E0C0D0C000C04F
:1000EE0001C0027A207905C3783CE613C0D030E710
:1000FE000224D030E30224FDF618D0D0D9EC7904D6
:10010E007833E613F618D9FADADBD002D001D00034
:10011E00D0D0D0E022C0E0C0D0E5302534F530E5B7
:10012E00313535F531E5323536F532E5333537F5DE
:10013E0033D0D0D0E022C0E0C0D0C3E5309534F546
:10014E0030E5319535F531E5329536F532E53395B5
:10015E0037F533D0D0D0E022C0E0C0D0C3E5309523
:10016E0034E5319535E5329536E53395379200D045
:10017E00D0D0E022C0E0C0D0C3E5349530E535954F
:10018E0031E5369532E53795339200D0D0D0E02266
:10019E00C0E0C0D0C200C3E53495307014E535958B
:1001AE0031700EE53695327008E53795337002D210
:1001BE0000D0D0D0E02212019E2000030201822244
:1001CE0012019E20000302016622C0E0C0F0C0D0E2
:1001DE00C000C001C002C003E5308534F0A4F8A908
:1001EE00F0E5318534F0A429F9E435F0FAE53085EF
:1001FE0035F0A429F9E5F03AFAE433FBE53285341B
:10020E00F0A42AFAE5F03BFBE5318535F0A42AFA95
:10021E00E5F03BFBE5308536F0A42AFAE5F03BFB32
:10022E00E5338534F0A42BFBE5328535F0A42BFBAA
:10023E00E5318536F0A42BFBE5308537F0A42BFB9A
:10024E008B338A3289318830D003D002D001D0006E
:10025E00D0D0D0F0D0E022C0E0C0D0C000C001C0ED
:10026E0002C003C0047C20E4F8F9FAFBC3E5303386
:10027E00F530E53133F531E53233F532E53333F52B
:10028E0033E833F8E933F9EA33FAEB33FBC3E89595
:10029E0034E99535EA9536EB95374013E89534F801
:1002AE00E99535F9EA9536FAEB9537FB433001DCE3
:1002BE00BBD004D003D002D001D000D0D0D0E022E9
:1002CE00C00078B10000D8FCD00022C000C0017977
:1002DE002D78A6D8FED9FADAF6D001D00022D29324
:1002EE001202CEC29322A2E792B5A2E692B4A2E582
:1002FE0092B3A2E492B21202EC1202CEA2E392B533
:10030E00A2E292B4A2E192B3A2E092B21202EC2265
:10031E00D2910202F4C2910202F4C293C2927433D9
:10032E00120323743312032374321203237428121C
:10033E000323740C1203237401120323C0027A02E6
:10034E001202D9D00222E493600612031EA380F695
:10035E002244404480020323C0E0E8C4540F4430DA
:10036E0012031EE8540F443012031ED0E022C0E0E8
:10037E00740814120361D0E0C000A842120366D0C4
:10038E0000C0E0740B14120361D0E0C000A8471245
:10039E000366D000C0E0740E14120361D0E0C000FA
:1003AE00A846120366D00022C0E074081412035F40
:1003BE00D0E0C000A843120366D000C0E0740B1456
:1003CE0012035FD0E0C000A847120366D000C0E061
:1003DE00740E14120361D0E0C000A846120366D05A
:1003EE000022D2A2C2A322C0E079007A08E833F834
:1003FE0092A1D2A3A2A2E933F9C2A3DAF0D0E022ED
:10040E0079DE78A6D8FED9FA438780759852759B07
:10041E0000759AF4759B1E22C2CA32E58954F044C7
:10042E0001F589758CEA758AE875F4EA75F2E8D2F9
:10043E00A922B2B73275C80075CDA975CC9A75CB05
:10044E00A975CA9AE4F544F545D2ADD2CA22C2CFF7
:10045E00B2B6C0E0C0D00544E54470020545E5449F
:10046E00B4E81CE545B40317D201B28CE4F544F5AB
:10047E0045E546308604240180022499D4F546D001
:10048E00D0D0E0327A5979FA78A6D8FED9FADAF6CF
:10049E002275817F12032812042912044375E60087
:1004AE0075E7007542007543007546007547007587
:1004BE004800754900754A00754B00C0E074011480
:1004CE00120361D0E0C083C082C0E09000401203EE
:1004DE0054D0E0D082D083C0E0740914120361D0EE
:1004EE00E0C083C082C0E0900052120354D0E0D02E
:1004FE0082D083C0E0740A14120361D0E0C083C0BE
:10050E0082C0E0900054120354D0E0D082D083C059
:10051E00E0740B14120361D0E0C083C082C0E0907F
:10052E000056120354D0E0D082D083C0E074011480
:10053E0012035FD0E0C083C082C0E0900046120379
:10054E0054D0E0D082D083C0E074091412035FD07F
:10055E00E0C083C082C0E0900052120354D0E0D0BD
:10056E0082D083C0E0740A1412035FD0E0C083C04F
:10057E0082C0E0900054120354D0E0D082D083C0E9
:10058E00E0740B1412035FD0E0C083C082C0E09011
:10059E000056120354D0E0D082D0831203F012041E
:1005AE000ED2AF754600754700E546C0E0740B14D9
:1005BE00120361D0E0C000A847120366D000C0E06D
:1005CE00740B1412035FD0E0C000A846120366D06D
:1005DE00000205E220801CC0027A321202D9D0023B
:1005EE002080103080FDE5422401D4F542E4120350
:1005FE007C80E120831DC0027A321202D9D0022003
:10060E0083113083FDE5472401D4F547E412037CC2
:10061E000205E22086BEC0027A321202D9D0022032
:10062E0086B23086FDE5462401D4F546E412037CFD
:10063E000205E2D201D2CAD2A902064A12067820D7
:10064E00C547C0027A321202D9D00220C53B30C54E
:10065E00FDC2CAE4F544F545F546E5472401D4F557
:10066E0047D2CAD2A90206C480D2B2B7C2A07801BC
:10067E001203F578801203F5E9540378551203F549
:10068E00D2A01204921206ED2220A70FC0027A32D7
:10069E001202D9D00220A70330A7FD30019EC2015D
:1006AE00E546B460117400F546E5472401D4F547DC
:1006BE00B46003E4F547C0E0740B14120361D0E09C
:1006CE00C000A847120366D000C0E0740E141203D7
:1006DE0061D0E0C000A846120366D00002064A852B
:1006EE003D30853E3175320075330075349A75355F
:1006FE00017536007537001201D87534FF75350354
:10070E007536007537001202657534117535017531
:10071E00360075370012014412005E12074E8538FE
:10072E00411200E7753411753501753600753700C5
:10073E0012014412005EC000A838120366D00022D7
:10074E00C0E074061412035FD0E0C000A838120394
:10075E0066D00022C2A078011203F5E5F0C454F071
:10076E00D2E7F81203F5E95403FF78551203F58921
:04077E0006D2A022DD
:00000001FF
